:020000040000FA
:100000000C948D020C94790D0C94520D0C94B50245
:100010000C94B5020C94B5020C94B5020C94B50284
:100020000C94B5020C94B5020C94B5020C94B50274
:100030000C94B5020C94B5020C94B5020C94B50264
:100040000C94080D0C94B5020C94C60D0C94A00DE4
:100050000C94B5020C94B5020C94B5020C94B50244
:100060000C94B5020C94B5027C4F70656E456E65BC
:100070007267794D6F6E69746F722E6F7267007C54
:10008000656D6F6E426173655F72666D363970695A
:100090005F4C504C2056007C000A002028686964A0
:1000A00064656E292E00206279746573002C2044EB
:1000B0006174612073697A653A2000205369676E24
:1000C00061747572653A20007C004E6F2064617423
:1000D0006120626C6F636B20666F756E64202D20EB
:1000E000454550524F4D20617070656172732074A8
:1000F0006F20626520666F726D6174746564207430
:100100006F204F454D205374616E646172642062AC
:10011000757420756E757365642E007C007C000A12
:10012000002062797465732C206E6F7420666F7284
:100130006D617474656420746F204F454D20537455
:10014000616E646172640053697A653A20007C00D4
:100150000D0A7C436F6E6669672073617665640D76
:100160000A7C007C536B65746368207265737461EC
:100170007274696E6720776974682064656661755A
:100180006C7420636F6E6669672E007C52657365C0
:100190007474696E672E2E2E00206900206700207F
:1001A000700039003800340020620020720053656E
:1001B0007474696E67733A007C4E6F6465204944BD
:1001C0003A20007C47726F75703A20002064426DBF
:1001D000007C506F7765723A20003931354D487A8E
:1001E000003836384D487A003433334D487A007C35
:1001F00052462042616E643A20007C526164696F0D
:100200003A20007C53657474696E6773007C0A7CC5
:10021000417661696C61626C6520636F6D6D616EC2
:1002200064733A0A7C206C09092D206C6973742070
:10023000636F6E66696720287465727365290A7C2E
:10024000204C09092D206C69737420636F6E6669F8
:10025000672028766572626F7365290A7C207209AF
:10026000092D20726573746F72652064656661750F
:100270006C7473202620726573746172740A7C201A
:100280007309092D207361766520746F20454550F0
:10029000524F4D0A7C207609092D2073686F772014
:1002A00076657273696F6E0A7C20563C6E3E090952
:1002B0002D20766572626F7365206D6F64652C20EA
:1002C00031203D204F4E2C2030203D204F46460A05
:1002D0007C20623C6E3E09092D2073657420722ECD
:1002E000662E2062616E64206E203D2034203E2008
:1002F0003433334D487A2C2038203E203836384D60
:10030000487A2C2039203E203931354D487A202832
:100310006D617920726571756972652068617264BA
:1003200077617265206368616E6765290A7C207059
:100330003C6E6E3E09092D2073657420722E662E68
:10034000207472616E736D697420706F7765722EA0
:10035000206E6E202830202D20333129203D202D85
:1003600031382064426D20746F202B313320644279
:100370006D2E2044656661756C743A2032352028F4
:100380002B372064426D290A7C20673C6E6E6E3EDE
:10039000092D207365742047726F757020284F45B2
:1003A0004D2064656661756C74203D2032313029C2
:1003B0000A7C206E3C6E6E3E09092D207365742008
:1003C0006E6F64652049442028312E2E3630290A6C
:1003D0007C20543C6363633E5C6E092D2074726123
:1003E0006E736D6974206120737472696E672E0A72
:1003F0007C20773C6E3E09092D206E203D20302068
:10040000666F7220726164696F207472616E736DC1
:100410006974204F46462C206E203D203120666FA7
:1004200072205472616E736D6974204F4E0A7C2085
:100430003F09092D2073686F772074686973206104
:100440006761696E0A7C007C526164696F20006F8D
:100450006666006F6E007C566572626F7365206D14
:100460006F646520007C656D6F6E506920434D2080
:1004700056002064426D007C703A20007C4E6F6410
:100480006520007C47726F757020003931354D480A
:100490007A003836384D487A003433334D487A0084
:1004A0007C52462042616E64203D200020620A009A
:1004B000202D3E2000290028002000200020004F91
:1004C0004B000000000800020100000304070000C8
:1004D00000000000000000000000250028002B00A4
:1004E00000000000240027002A000404040404047F
:1004F00004040202020202020303030303030102D3
:1005000004081020408001020408102001020408A1
:1005100010207C000A007C00F80D11241FBECFEFD4
:10052000D8E0DEBFCDBF22E0AEE5B1E001C01D9254
:10053000A53BB207E1F711E0A0E0B1E0E4EFF6E29D
:1005400002C005900D92AE35B107D9F712E0CDE8A3
:10055000D2E004C02197FE010E947213CC38D1076B
:10056000C9F70E94CB0E0C9478130C94000090E015
:10057000FC01E250FB4F249186519B4FFC0184917A
:10058000882399F090E0880F991FFC01E052FB4FFF
:10059000A591B491FC01EA52FB4F859194918FB7DC
:1005A000F894EC91E22BEC938FBF089581E0809357
:1005B0006501089590E0FC01EE53FB4F2491FC018E
:1005C000E250FB4F3491FC01E651FB4FE491EE23E6
:1005D000C9F0222339F0233001F1A8F4213019F1B8
:1005E000223029F1F0E0EE0FFF1FEA52FB4FA591F8
:1005F000B4918FB7F894EC91611126C030953E23E9
:100600003C938FBF08952730A9F02830C9F02430DB
:1006100049F7809180008F7D03C0809180008F77A3
:1006200080938000DFCF84B58F7784BDDBCF84B526
:100630008F7DFBCF8091B0008F778093B000D2CFB9
:100640008091B0008F7DF9CF3E2BDACF3FB7F89481
:100650008091F5019091F601A091F701B091F80118
:1006600026B5A89B05C02F3F19F00196A11DB11D0D
:100670003FBFBA2FA92F982F8827BC01CD01620F49
:10068000711D811D911D42E0660F771F881F991F04
:100690004A95D1F708958F929F92AF92BF92CF92D1
:1006A000DF92EF92FF924B015C010E9426036B01E7
:1006B0007C010E9426036C197D098E099F09683E02
:1006C000734081059105A8F321E0821A9108A108E1
:1006D000B10888EEC80E83E0D81EE11CF11C81141D
:1006E0009104A104B10429F7FF90EF90DF90CF901F
:1006F000BF90AF909F908F9008952FB7F89460911E
:10070000F1017091F2018091F3019091F4012FBFFA
:1007100008950895AF92BF92CF92DF92EF92FF9229
:100720000F931F93CF93DF936C017B018B01040F19
:10073000151FEB015E01AE18BF08C017D10759F0B5
:100740006991D601ED91FC910190F081E02DC601F7
:100750000995892B79F7C501DF91CF911F910F91F1
:10076000FF90EF90DF90CF90BF90AF900895FC0185
:10077000538D448D252F30E0842F90E0821B930B06
:10078000541710F0CF96089501970895FC01918DAC
:10079000828D981761F0A28DAE0FBF2FB11D5D96AF
:1007A0008C91928D9F5F9F73928F90E008958FEF51
:1007B0009FEF0895FC01918D828D981731F0828D05
:1007C000E80FF11D858D90E008958FEF9FEF08955C
:1007D0000F931F930E947D036093030270930402A2
:1007E00080930502909306028BEF91E00E94DA035A
:1007F00097FF1DC00E947D03009103021091040227
:100800002091050230910602601B710B820B930B45
:100810000091FF011091000220910102309102022B
:100820006017710782079307F8F28FEF9FEF1F9110
:100830000F910895CF92DF92EF92FF92CF930E9493
:10084000E803FC0197FD4EC08D32910521F0C09761
:100850000A9708F040C0C12CD12C7601C0E0E130ED
:10086000F105D1F0ED32F105D9F1CF01C0970A972A
:1008700098F4AAE0B0E0A70196010E9436136F0138
:10088000FF0FEE08FF08C60ED71EE81EF91E80E314
:10089000C81AD108E108F1088BEF91E00E94C60365
:1008A0000E94E803FC01C0970A97C8F2E130F10505
:1008B000B1F2CC2341F0F094E094D094C094C11CE8
:1008C000D11CE11CF11CC701B601CF91FF90EF9044
:1008D000DF90CF9008958BEF91E00E94C603AFCFD9
:1008E000C1E0DACFC12CD12C7601EDCFFC01918D86
:1008F000228D892F90E0805C9F4F821B91098F731E
:10090000992708958BEF91E00E94760421E0892BCE
:1009100009F420E0822F089580E090E0892B29F0EF
:100920000E94820481110C9400000895FC01A48DA2
:10093000A80FB92FB11DA35ABF4F2C91848D90E001
:1009400001968F739927848FA689B7892C93A089E4
:10095000B1898C91837080648C93938D848D98136E
:1009600006C00288F389E02D80818F7D8083089501
:10097000EF92FF920F931F93CF93DF93EC0181E0EF
:10098000888F9B8D8C8D98131AC0E889F989808196
:1009900085FF15C09FB7F894EE89FF896083E889C9
:1009A000F98980818370806480839FBF81E090E0BB
:1009B000DF91CF911F910F91FF90EF900895F62E48
:1009C0000B8D10E00F5F1F4F0F731127E02E8C8DE2
:1009D0008E110CC00FB607FCFACFE889F989808127
:1009E00085FFF5CFCE010E949604F1CFEB8DEC0F81
:1009F000FD2FF11DE35AFF4FF0829FB7F8940B8F44
:100A0000EA89FB8980818062CFCF682F8BEF91E0EC
:100A10000C94B8040F931F93CF93DF938C01D0E015
:100A2000C0E0F801EC0FFD1F6491662341F08BEFED
:100A300091E00E94B804892B11F02196F2CFCE01EB
:100A4000DF91CF911F910F910895CF93DF93EC0128
:100A5000888D8823B9F0AA89BB89E889F9898C91A6
:100A600085FD03C0808186FD0DC00FB607FCF7CF62
:100A70008C9185FFF2CF808185FFEDCFCE010E9462
:100A80009604E9CFDF91CF910895CF93DF93EC01E6
:100A900061E08A810E94DA028C858CBD8D858DBDD6
:100AA000DF91CF910895FC018CB584878DB5858742
:100AB000968587859CBD8DBD60E082810C94DA02AD
:100AC0004F925F926F927F929F92AF92BF92CF921E
:100AD000DF92EF92FF920F931F93CF93DF9300D09B
:100AE00000D000D0CDB7DEB79E838D836B015A0155
:100AF000122FF02E912C2E2D30E050E040E0298373
:100B00003A834B835C83AD81BE81ED91FC9111975B
:100B10000280F381E02D01E0212FA501B601CD0176
:100B200009950E947D032B013C010E947D036419FD
:100B300075098609970929813A814B815C81621781
:100B400073078407950780F5AD81BE81ED91FC9117
:100B500011970680F781E02DCD010995882329F3AF
:100B60002091EE013091EF01C216D30619F0C114A5
:100B7000D104D9F6909161019923B9F226960FB666
:100B8000F894DEBF0FBECDBFDF91CF911F910F91C3
:100B9000FF90EF90DF90CF90BF90AF909F907F90AD
:100BA0006F905F904F9008959394F91408F0ABCF35
:100BB00080E0E4CFCF93C62FDC01ED91FC9111973B
:100BC0000484F585E02D19962C912223A9F06E3F1F
:100BD00054F065317CF46C3044F462E06C0F09959C
:100BE0008C2FCF910895CEEFF8CF64E0C031B4F3ED
:100BF00063E0F4CFC4E1FCCF6E300CF0CDE0CE3E2C
:100C00000CF4CEEE62E1EACFFC01808508950895F0
:100C10008EBD00000DB407FEFDCF8EB508950F9375
:100C20001F93CF93DF93EC01062F142FE881F981F6
:100C30000488F589E02D0995802F80680E940806B8
:100C4000812F0E940806E881F9810688F789E02D46
:100C5000CE01DF91CF911F910F9109941F93CF93F4
:100C6000DF93EC01162F89858823A9F088858431CC
:100C700090F04DE5611101C045E56AE5CE010E94A5
:100C80000F0640E711114CE76CE5CE01DF91CF91E3
:100C90001F910C940F0610E0EFCFCF93DF93EC0180
:100CA00069874AE161114FE063E1CE010E940F06BE
:100CB000E881F9810484F585E02D6885CE01DF9116
:100CC000CF9109940F931F93CF93DF938C01C62F7D
:100CD000DC0119968C911997882331F1683130F035
:100CE00087E118968C93C7E1C85F1CC0F801608744
:100CF0006031A8F4C05FD0E4D801ED91FC91068C7E
:100D0000F78DE02D61E0C80109954C2F4D2B61E175
:100D1000C801DF91CF911F910F910C940F066431A0
:100D200018F7C65FD0E6E8CF603208F0CFE1F801EF
:100D3000C087D0E8EACF1F93CF93DF93EC01162F43
:100D4000E881F9810488F589E02D0995812F0E94B9
:100D5000080680E00E940806182FE881F9810688BD
:100D6000F789E02DCE010995812FDF91CF911F9159
:100D70000895CF93DF93EC011092ED011092EF01F3
:100D80001092EE01109263011092620110926401C0
:100D9000109261011092600110925F0168E20E945E
:100DA0009B0682FF0AC06DE3CE010E949B06482F7E
:100DB00044606DE3CE010E940F0640E465E2CE017F
:100DC0000E940F06E881F9810288F389E02D63E033
:100DD000CE01DF91CF9109944F925F926F927F92F3
:100DE0008F929F92AF92BF92CF92DF92EF920F932A
:100DF0001F93CF93DF93EC014B01142FC090EE01B2
:100E0000D090EF01A0905F01B09060016DE30E946F
:100E10009B06482F44606DE3CE010E940F060E949E
:100E20007D032B013C01E881F9810190F081E02DE7
:100E3000CE010995811113C00E947D0364197509C3
:100E400086099709683E73408105910540F4E88161
:100E5000F9810680F781E02DCE010995E4CFD0928B
:100E6000EF01C092EE01E881F981028CF38DE02D53
:100E7000EE24E39400E0212FA401B601CE010995F0
:100E8000B0926001A0925F01DF91CF911F910F910D
:100E9000EF90DF90CF90BF90AF909F908F907F901A
:100EA0006F905F904F9008954F925F926F927F92F4
:100EB000AF92BF92CF92DF92EF920F931F93CF9397
:100EC000DF93EC016B015A01122F6DE30E949B0628
:100ED000482F44606DE3CE010E940F060E947D03FF
:100EE0002B013C01E881F9810190F081E02DCE01D8
:100EF0000995811113C00E947D0364197509860943
:100F00009709683E73408105910540F4E881F981B5
:100F10000680F781E02DCE010995E4CFE881F981C3
:100F2000028CF38DE02DE12C212FA501B601CE011D
:100F30000995DF91CF911F910F91EF90DF90CF90A6
:100F4000BF90AF907F906F905F904F9008951F93E8
:100F5000CF93DF932091A402261761F0162FEC01A6
:100F6000623009F445C050F4662309F453C061307F
:100F700009F449C0DF91CF911F910895633021F1A9
:100F80006430C1F761E00E949B06837E482F4C606D
:100F900061E0CE010E940F068985882341F0E88137
:100FA000F981068CF78DE02D61E0CE0109958091E5
:100FB000A402811106C067E2CE010E949B0687FF52
:100FC000F6CF1093A402D6CF61E00E949B06837EE9
:100FD000482F406161E0CE010E940F068985882379
:100FE00031F3E881F981068CF78DE02D60E0DDCFEB
:100FF00061E00E949B06837E482F486061E0CE013D
:101000000E940F06D4CF61E00E949B06837E482F8A
:101010004460F4CF61E00E949B06482F437EEECFF0
:101020000F931F93CF93DF93EC0161E085EA92E089
:101030000E94A707209749F18881882331F185EA2A
:1010400092E00E9453058EEB0E9408068E01005F1D
:101050001F4F89910E9408060C171D07D1F785EADA
:1010600092E00E944505C1E06DE385EA92E00E94AE
:101070009B068E7F482F4C2B6DE385EA92E0DF9133
:10108000CF911F910F910C940F06C0E0EDCFCF923E
:10109000DF92EF92FF920F931F93CF93DF93CDB721
:1010A000DEB7AE970FB6F894DEBF0FBECDBF8B0193
:1010B000FE0133969CE2DF011D929A95E9F791E0DB
:1010C000998324E02A8332E03B8393E09D833E832F
:1010D0002F8320E4288735E039879A8796E09B871D
:1010E00093E39C8797E09D8738E03F8739E0398B11
:1010F00039E13B8B32E43C8B55E25D8B2E8B26E253
:101100002F8B988F98E2998F20E12A8F99E29B8FFD
:101110009CED9C8F9EE29D8F98E89E8F9FE29F8F13
:101120009DE298A390E399A357E35BA350E95CA3E6
:1011300058E35DA33EA33CE33FA33FE838A73DE36C
:1011400039A72AA72FE62BA79CA79FEF9DA79EE470
:101150008F3139F09CE68B3221F094EE863509F41C
:1011600099ED9E878F3109F498C08B3209F493C0B2
:10117000863509F092C080E0888B4AA361E08091B7
:10118000A7020E94DA028091A7020E94B702809112
:10119000AF029091B002892B31F48AEF91E09093E5
:1011A000B0028093AF02FFB6F8948091F9018111EB
:1011B00024C0E4EFF4E08491E8E0F5E09491E82FB6
:1011C000F0E0EE0FFF1FE052FB4FA591B491EC91C0
:1011D000E92321F461E08AE00E94DA028AE00E94B9
:1011E000B7028CB580618CBD8CB580648CBD8DE000
:1011F0000E94B7028BE00E94B7028091F9018F5FD5
:101200008093F901FFBE80E58093B30281E0809373
:10121000B4020E947D036B017C014AEA6FE285EA19
:1012200092E00E940F066FE285EA92E00E949B0620
:101230008A3A59F00E947D036C197D098E099F0935
:10124000623371058105910540F30E947D036B01B6
:101250007C0145E56FE285EA92E00E940F066FE2AD
:1012600085EA92E00E949B068535C9F4F12CEF2DAA
:10127000F0E0EE0FFF1F81E090E08C0F9D1FE80F64
:10128000F91F60816F3FB9F0418185EA92E00E94C9
:101290000F06F394ECCF80E46FCF80EC6DCF0E940B
:1012A0007D036C197D098E099F09623371058105E3
:1012B000910578F2DBCF90E080E00E941008609109
:1012C000AE0285EA92E00E944D0661E085EA92E076
:1012D0000E94A7070E947D036B017C0167E285EAFB
:1012E00092E00E949B0687FD0BC00E947D036C1953
:1012F0007D098E099F09623371058105910570F39F
:101300000E947D036C197D098E099F096233710566
:101310008105910588F58091A902823090F4E82F2B
:10132000F0E0EE0FFF1FEA5FFE4F26ED32E0318363
:1013300020838130D1F080916900836080936900BF
:10134000E89A1093AB020093AA0281E0AE960FB622
:10135000F894DEBF0FBECDBFDF91CF911F910F91EB
:10136000FF90EF90DF90CF900895809169008C609E
:1013700080936900E99AE5CF80E0E8CFAF92BF9211
:10138000CF92DF92EF92FF920F931F93CF93DF9351
:10139000EC016B01B42EA52EF22E102FE881F981FD
:1013A0000288F389E02D61E0099567E2CE010E9491
:1013B0009B0687FFFACF0F2D0E3308F00DE3E110E7
:1013C0003DC01123E9F110E48FEFC816D10449F0B4
:1013D00040F0C60126E0969587952A95E1F78C7036
:1013E000182B8D819E818F3F910521F018F0892F58
:1013F0008370182BE881F9810488F589E02DCE01EE
:10140000099580E80E94080683E0800F0E94080684
:101410008C2D0E9408068D810E940806812F0E9453
:1014200008061B2DEB2CFA2C8E2D811B801750F4F7
:10143000F70181917F010E940806F6CF10E8C4CF22
:1014400010E0C2CFE881F9810688F789E02DCE014E
:101450000995E881F9810288F389E02D64E0CE01E5
:10146000099568E2CE010E949B0683FFFACFE881CE
:10147000F9810288F389E02D61E0CE01DF91CF91FF
:101480001F910F91FF90EF90DF90CF90BF90AF90A2
:1014900009941F93CF93DF93EC01FE011491112364
:1014A00051F01A3019F48DE00E940505812F0E9439
:1014B00005052196F2CFDF91CF911F91089561E04C
:1014C00089E00E94DA0264E170E080E090E00E942E
:1014D0004B0360E089E00E94DA026CE370E080E098
:1014E00090E00E944B0361E089E00E94DA0264E12F
:1014F00070E080E090E00E944B0360E089E00C9493
:10150000DA02EF92FF920F931F93CF93DF937C0148
:101510008C01C3E0D0E0CE010E942013F80181933A
:101520008F012196C730D105B1F7C701DF91CF9167
:101530001F910F91FF90EF9008950F931F93CF93FA
:10154000DF9300D000D0CDB7DEB78C0190E080E013
:101550000E9420138F34D1F481E090E00E94201388
:101560008534A1F482E090E00E9420138D3471F460
:1015700081E00115110559F0CE0101960E94810A02
:1015800081E02B813C812017310709F080E00F902A
:101590000F900F900F90DF91CF911F910F910895B1
:1015A000FC0101900020E9F73197AF01481B590B6E
:1015B000BC018BEF91E00C948A0380E491E00C94E1
:1015C000D00ACF93DF930E940A05EC010E94DD0A46
:1015D0008C0F9D1FDF91CF9108958F929F92AF92B4
:1015E000BF920F931F93CF93DF93CDB7DEB7A19731
:1015F0000FB6F894DEBF0FBECDBF19A2423008F47B
:101600004AE08E010F5D1F4F842E912CB12CA12C2E
:10161000A50194010E945013E62FB901CA01EA30D6
:10162000F4F4E05DD801EE938D01232B242B252BC0
:1016300079F790E080E0109719F0CD010E94D00A70
:10164000A1960FB6F894DEBF0FBECDBFDF91CF914C
:101650001F910F91BF90AF909F908F900895E95C7C
:10166000E1CFCF93DF93682F70E090E080E04AE015
:101670000E94ED0AEC010E94DD0A8C0F9D1FDF9194
:10168000CF910895CF92DF92EF92FF92CF93DF93A5
:101690006C01990FEE08FF08F7FE17C08DE20E945B
:1016A0000505EC0166277727CB016C197D098E09AA
:1016B0009F094AE00E94ED0A8C0F9D1FDF91CF9198
:1016C000FF90EF90DF90CF9008954AE0C701B601F8
:1016D000DF91CF91FF90EF90DF90CF900C94ED0AC7
:1016E000CF92DF92EF92FF920F931F93CF93DF93EE
:1016F0008C017B0186E195E00E940A05D0E0C0E004
:10170000CE15DF058CF56801CC0EDD1EC6010E94EA
:101710002013803118F480E30E9405052196C6014C
:101720000E942013682F70E090E080E040E10E946A
:10173000ED0A83E491E00E94D00ACE0187709927D8
:10174000892B21F483E491E00E94D00ACE018F70AE
:101750009927892BA9F684E195E00E940A0582E188
:1017600095E00E940A05CCCFDF91CF911F910F9198
:10177000FF90EF90DF90CF900895BC0190E080E063
:101780004AE00C94ED0ACF93DF932091A40223301A
:1017900021F080E0DF91CF91089520916401211123
:1017A000F8CFEC0164E20E949B0690E09195819550
:1017B00091098C349F4F6CF7E881F9810288F38995
:1017C000E02D61E0CE01099581E0E4CFEF92FF9238
:1017D0000F931F93CF93DF93EC01809165018823D2
:1017E00009F468C08091A40210926501833009F069
:1017F000B5C068E2CE010E949B0682FFAFC0E881BF
:10180000F9810288F389E02D61E0CE010995E88134
:10181000F9810488F589E02DCE01099580E00E94C8
:10182000080680E00E940806082F182F833408F06D
:1018300012E41093640180E00E940806E82E80E024
:101840000E940806F82E80E00E940806282F30E04B
:10185000A90166E0440F551F6A95E1F744275370CC
:101860004E295093630140936201322F2227222791
:1018700033702F293093EF012093EE019F81E8818F
:10188000F981911107C02D813E814217530711F054
:10189000452B11F4033040F5109264010688F78956
:1018A000E02DCE010995E881F981048CF58DE02DBC
:1018B000CE0109958091A402833009F05EC0809129
:1018C0006401882309F460C0E881F9810288F38902
:1018D000E02D61E0CE01099581E0DF91CF911F916C
:1018E0000F91FF90EF90089513501093ED01982FF2
:1018F0009078909361010885008CF18DE02D682F20
:10190000CE01099510E0E091ED011E1750F480E042
:101910000E940806E12FF0E0E155FE4F80831F5F33
:10192000F2CFF0E0E155FE4F1082E881F9810688A0
:10193000F789E02DCE010995E881F9810288F389C4
:10194000E02D63E0CE0109956885061739F0E8813E
:10195000F9810484F585E02DCE01099564E2CE017C
:101960000E949B0690E091958195910995958795A8
:101970009093600180935F019DCFE881F981048C91
:10198000F58DE02DCE01099580E0A7CFFF920F9352
:101990001F93CF93DF93EC01F62E08811981C801C4
:1019A0000E942013F81621F06F2DC8010E94281301
:1019B000CE01DF91CF911F910F91FF900895CF92AB
:1019C000DF92EF92FF920F931F93CF93DF9300D09C
:1019D000CDB7DEB76C017C0103E010E01A83098308
:1019E000F70161917F01CE0101960E94C60C0F5F45
:1019F0001F4F0730110591F7C6010F900F90DF912F
:101A0000CF911F910F91FF90EF90DF90CF900895AD
:101A10001F920F920FB60F9211242F933F938F9323
:101A20009F93AF93BF938091F1019091F201A091A8
:101A3000F301B091F4013091F00123E0230F2D3731
:101A400058F50196A11DB11D2093F0018093F1017D
:101A50009093F201A093F301B093F4018091F5010A
:101A60009091F601A091F701B091F8010196A11DA6
:101A7000B11D8093F5019093F601A093F701B09307
:101A8000F801BF91AF919F918F913F912F910F904E
:101A90000FBE0F901F90189526E8230F0296A11DE8
:101AA000B11DD2CF1F920F920FB60F9211242F9318
:101AB0003F934F935F936F937F938F939F93AF93D6
:101AC000BF93EF93FF93E0910801F091090109950D
:101AD000FF91EF91BF91AF919F918F917F916F9106
:101AE0005F914F913F912F910F900FBE0F901F90DC
:101AF00018951F920F920FB60F9211242F933F93B8
:101B00004F935F936F937F938F939F93AF93BF9305
:101B1000EF93FF93E0910601F09107010995FF9182
:101B2000EF91BF91AF919F918F917F916F915F9155
:101B30004F913F912F910F900FBE0F901F901895CE
:101B40001F920F920FB60F9211242F933F934F9332
:101B50005F936F937F938F939F93AF93BF93EF9315
:101B6000FF938BEF91E00E949604FF91EF91BF915C
:101B7000AF919F918F917F916F915F914F913F9125
:101B80002F910F900FBE0F901F9018951F920F92DC
:101B90000FB60F9211242F938F939F93EF93FF9380
:101BA000E0910B02F0910C028081E0911102F09122
:101BB000120282FD1BC09081809114028F5F8F738F
:101BC00020911502821741F0E0911402F0E0E550F7
:101BD000FE4F958F80931402FF91EF919F918F910B
:101BE0002F910F900FBE0F901F9018958081F4CF0A
:101BF000EF92FF920F931F93CF93DF9300D0CDB757
:101C0000DEB71092FE011092FD0188EE93E0A0E095
:101C1000B0E08093FF0190930002A0930102B09383
:101C200002028EE091E09093FC018093FB0185EC31
:101C300090E0909308028093070284EC90E09093E8
:101C40000A028093090280EC90E090930C0280934A
:101C50000B0281EC90E090930E0280930D0282ECD7
:101C600090E09093100280930F0286EC90E09093A6
:101C70001202809311021092140210921502109217
:101C80001602109217028EEF90E090939F028093BD
:101C90009E0285E190E090939B0280939A0284E2F9
:101CA00090E090939902809398028BE091E090935A
:101CB000A1028093A0028FEF93E09093A302809300
:101CC000A20210929D0210929C020BE011E0C8014A
:101CD0000E942013780195E1E90EF11C8F3F69F114
:101CE00010939D0200939C028FEFE81683E0F806A4
:101CF00054F5C7010E9420138F3FD9F00BE011E08B
:101D00008091A2029091A30208171907E4F41A83A4
:101D100009836FEFCE0101960E94C60C10929D02BE
:101D200010929C0280919A0290919B02080F191FB9
:101D3000E7CF95E1E90EF11CD7CF87018FEFE816C9
:101D400083E0F80621F680E291E09093A60280936A
:101D5000A50280E58093B3021092B4028AE08093DA
:101D6000A70282E08093A80281E08093A4021092EF
:101D7000AC028FE18093AD021092AE021092B002DD
:101D80001092AF020F900F90DF91CF911F910F91A2
:101D9000FF90EF900895CF93DF9300D000D000D054
:101DA000CDB7DEB7789484B5826084BD84B5816098
:101DB00084BD85B5826085BD85B5816085BD809116
:101DC0006E00816080936E0010928100809181008E
:101DD0008260809381008091810081608093810086
:101DE000809180008160809380008091B100846048
:101DF0008093B1008091B00081608093B0008091A9
:101E00007A00846080937A0080917A008260809367
:101E10007A0080917A00816080937A0080917A00C4
:101E2000806880937A001092C10089E00E94B70216
:101E300061E089E00E94DA02E0910B02F0910C026D
:101E400082E08083E0910702F09108021082E09125
:101E50000902F0910A0283E3808310921302E09159
:101E60000F02F091100286E08083E0910D02F09164
:101E70000E02808180618083E0910D02F0910E025C
:101E8000808188608083E0910D02F0910E02808154
:101E900080688083E0910D02F0910E0280818F7D39
:101EA00080838FE790E00E940A0585E491E00E941C
:101EB000D00A88E690E00E94E10A87E190E00E9463
:101EC0009D0A8823E1F0CE0101960E94810AE980F3
:101ED000FA80F7FC14C023E0E20EF11C71E0C72E7B
:101EE00071E0D72E07E010E0C8010E942013F60130
:101EF00081936F010F5F1F4F0E151F05A8F360ED53
:101F000077E080E090E00E944B03409103016091F4
:101F1000040170E08091A802823031F41092A9028D
:101F20008BE20E94470806C0833009F444C08FEF5B
:101F30008093A9028DE491E00E94100860E089E09E
:101F40000E94DA0230E0632E30E0732E49E0C42EA6
:101F5000D12CAA24A394B12C62E0862E912C85EA80
:101F600092E00E94E60B882309F442C08FEB94E0D4
:101F70000E940A058DEB94E00E940A058091EE0113
:101F80009091EF010E94BD0B8BEB94E00E940A053B
:101F900010E08091ED01181790F4E12FF0E0E15589
:101FA000FE4F808190E00E94BD0B89EB94E00E947F
:101FB0000A051F5FEECF81E08093A902B1CF87EBC6
:101FC00094E00E940A0564E285EA92E00E949B0682
:101FD00090E0919581959109959587950E94420B86
:101FE00085EB94E00E940A050E94DD0A0E945F0AC8
:101FF0008091050180FF2BC01091AE01112339F1B2
:1020000080EB94E00E94490A812F90E00E94BD0B72
:102010008CEA94E00E94490A00E02091AE014CE66F
:1020200051E070E060E085EA92E00E94540710926F
:10203000AE0161E089E00E94DA026EE170E080E0CA
:1020400090E00E944B0360E089E00E94DA028BEF8F
:1020500091E00E947604892B09F4DCC28BEF91E0B9
:102060000E947604892B09F4BAC28BEF91E00E949A
:10207000DA03182F80ED810F8A30C0F481E080935D
:102080006A010E947D0360936601709367018093EB
:102090006801909369018BEF91E00E947604892B8F
:1020A00061F18BEF91E00E94C603F5CF0E947D03A2
:1020B000209166013091670140916801509169015A
:1020C000621B730B840B950B613D77408105910575
:1020D00010F010926A0180916A0181110EC01936C8
:1020E00009F49DC1CCF5143509F43DC294F41F33B5
:1020F00009F46EC21C3409F44BC18BEF91E00E94CD
:102100007604892B09F46BC28BEF91E00E94C60321
:10211000F4CF123609F4F9C0173609F428C1163580
:1021200061F70E941A041B012C0181E02114310483
:102130004104510409F480E08093000186E594E0B5
:102140000E940A058FE494E023282428252809F416
:10215000D1C183E594E0CEC1123709F48FC10CF0F0
:1021600059C01E3609F45BC1103709F46FC11C3623
:1021700021F68EEA91E00E940A058BEA91E00E9426
:102180000A056091050170E090E080E04AE00E945D
:10219000ED0A88EA91E00E940A05809101018B32E4
:1021A00021F486EA91E00E940A05809101018635BA
:1021B00021F484EA91E00E940A05809101018B35A7
:1021C00021F482EA91E00E940A058FE991E00E94E1
:1021D0000A056091020170E090E080E04AE00E9410
:1021E000ED0A8CE991E00E940A056091030170E01C
:1021F00090E080E04AE00E94ED0A89E991E00E94C7
:102200000A056091040170E090E080E04AE00E94DD
:10221000ED0A73CF163709F4C2C1173709F4C8C1E4
:10222000133709F06ACF87E190E00E949D0A81117F
:1022300024C01A8219826FE4CE0101960E94C60C56
:10224000BA82A98265E4CE0101960E94C60C9A82E8
:1022500089826DE4CE0101960E94C60C03E010E075
:102260001A8309836FEFCE0101960E94C60C0F5F9F
:102270001F4F011524E0120799F7DA82C98287E11E
:1022800090E09C838B83CE0101960E94DF0C81E05D
:10229000E82E81E0F82E07E010E0F70161917F0160
:1022A0001E830D83CE0105960E94C60C0F5F1F4F43
:1022B0000C30110591F780910001882309F41DCF9E
:1022C00090E080E00E949D0A811102C18EE491E0BD
:1022D0000E940A0587E491E00E940A0580E094E0EC
:1022E0000E94BD0B81E291E00E94E10A60E074E08F
:1022F00090E080E00E94700B8FE191E00E940A055F
:102300008DE191E00E940A05F3C00E941A048BE25D
:10231000643039F086E5683021F080E0693009F4F6
:102320008BE580930101809100018823E1F080EA30
:1023300094E00E940A05809101018B3221F489E921
:1023400094E00E94E10A80910101863521F482E93E
:1023500094E00E94E10A809101018B3521F48BE821
:1023600094E00E94E10A81E080936B01C6CE0E9456
:102370001A0460930301809100018823A1F383E88C
:1023800094E00E940A05809103010E94310BEBCF7B
:1023900083E092E00E94E10A8AEF91E00E940A0540
:1023A000809105010E94310B8FEE91E00E940A0599
:1023B000809101018B3221F488EE91E00E94E10AC4
:1023C00080910101863521F481EE91E00E94E10ABD
:1023D000809101018B3521F48AED91E00E94E10AA0
:1023E00081ED91E00E940A05809102018251990BD2
:1023F0000E94420B8CEC91E00E94E10A83EC91E098
:102400000E940A05809103010E94310B88EB91E044
:102410000E940A05809104010E94310B6ECE0E9439
:102420001A04662389F0603408F06FE360930401B6
:1024300080910001882309F496CF8CE794E00E94F4
:102440000A0580910401A1CF61E0F0CF0E941A0437
:102450006F716093020180910001882309F483CF9A
:1024600087E794E00E940A05809102018F718251F2
:10247000990B0E94420B82E794E073CF8091000198
:10248000882321F08BE891E00E940A0587E190E023
:102490000E949D0A882389F0CE0101960E94810A3C
:1024A00089819A8197FD09C09195819591099A83B7
:1024B0008983CE0101960E94DF0C80910001882360
:1024C00021F083E691E00E94E10A0C94000015CE11
:1024D000CE0101960E94810A8B819C81019669F44C
:1024E0008BE191E00E940A058AEC90E00E94E10AEB
:1024F00080E591E00E94E10A00CE88EC90E00E9425
:102500000A058BEB90E00E940A058B819C810E945A
:10251000BD0B09811A8117FF03C01195019511099F
:10252000045011098DEA90E00E940A05C8010E943A
:10253000420B86EA90E00E940A0589819A8197FF02
:1025400004C08BE990E00E940A050E94DD0AB801F0
:1025500087E090E00E94700B89E990E00E940A05F4
:1025600087E990E0CFCE8BEF91E00E94C6030CE6A6
:1025700011E0F12C8BEF91E00E94C60390EE980FD2
:102580009F3528F4F8018083F3940F5F1F4F8A3042
:1025900019F022E4F212EECFF092AE01AECD85E654
:1025A00094E00E940A0585E491E00E94D00AA5CD3E
:1025B0000E941A046093050180910001882309F4A8
:1025C0009CCD87E494E00E940A058091050124CF08
:1025D0008DE092E00E94490A0E94DD0A8ECD0E94A1
:1025E0005F0A80916B018823A9F0409103016091FB
:1025F0000401809101019091A8029230F1F0933092
:10260000A9F0FFEFF093A9028DE491E00E94100879
:1026100010926B016114710409F4A1CC0E94820430
:10262000882309F49CCC0E94000099CC91E09093FF
:10263000A90270E00E944708E7CF1092A902F9CFE3
:10264000F999FECF92BD81BDF89A992780B508957A
:10265000262FF999FECF1FBA92BD81BD20BD0FB6BE
:10266000F894FA9AF99A0FBE019608950E944113C0
:10267000A59F900DB49F900DA49F800D911D1124D6
:102680000895A29FB001B39FC001A39F700D811D4B
:102690001124911DB29F700D811D1124911D08956B
:1026A000A1E21A2EAA1BBB1BFD010DC0AA1FBB1F56
:1026B000EE1FFF1FA217B307E407F50720F0A21BC8
:1026C000B30BE40BF50B661F771F881F991F1A9435
:1026D00069F760957095809590959B01AC01BD015F
:1026E000CF010895EE0FFF1F0590F491E02D09949E
:1026F000F894FFCF012B19D205018903890300004B
:102700000000B8048A03B70325057604C603DA037C
:1027100000000000C30B54076005E60BEC064D06F5
:102720006206DA050406A707530545050706BE0934
:10273000B9062E060D0A002000312E302E300A0D6B
:102740000038397478626534703861696B356B7440
:02275000330054
:107E0000112484B714BE81FFF0D085E080938100F7
:107E100082E08093C00088E18093C10086E0809377
:107E2000C20080E18093C4008EE0C9D0259A86E02C
:107E300020E33CEF91E0309385002093840096BBD3
:107E4000B09BFECF1D9AA8958150A9F7CC24DD24C4
:107E500088248394B5E0AB2EA1E19A2EF3E0BF2EE7
:107E6000A2D0813461F49FD0082FAFD0023811F036
:107E7000013811F484E001C083E08DD089C08234E0
:107E800011F484E103C0853419F485E0A6D080C0E4
:107E9000853579F488D0E82EFF2485D0082F10E0AE
:107EA000102F00270E291F29000F111F8ED06801E7
:107EB0006FC0863521F484E090D080E0DECF843638
:107EC00009F040C070D06FD0082F6DD080E0C81688
:107ED00080E7D80618F4F601B7BEE895C0E0D1E017
:107EE00062D089930C17E1F7F0E0CF16F0E7DF06D8
:107EF00018F0F601B7BEE89568D007B600FCFDCFD4
:107F0000A601A0E0B1E02C9130E011968C91119780
:107F100090E0982F8827822B932B1296FA010C0160
:107F200087BEE89511244E5F5F4FF1E0A038BF0790
:107F300051F7F601A7BEE89507B600FCFDCF97BE46
:107F4000E89526C08437B1F42ED02DD0F82E2BD052
:107F50003CD0F601EF2C8F010F5F1F4F84911BD097
:107F6000EA94F801C1F70894C11CD11CFA94CF0C13
:107F7000D11C0EC0853739F428D08EE10CD085E9AC
:107F80000AD08FE07ACF813511F488E018D01DD067
:107F900080E101D065CF982F8091C00085FFFCCF94
:107FA0009093C60008958091C00087FFFCCF809118
:107FB000C00084FD01C0A8958091C6000895E0E648
:107FC000F0E098E1908380830895EDDF803219F02E
:107FD00088E0F5DFFFCF84E1DECF1F93182FE3DFCA
:107FE0001150E9F7F2DF1F91089580E0E8DFEE27F6
:047FF000FF270994CA
:027FFE00040479
:00000001FF
