:020000040000FA
:100000000C94B8020C9480090C9459090C94FF09C3
:100010000C94E0020C94E0020C94E0020C94E002D8
:100020000C94E0020C94E0020C94E0020C94E002C8
:100030000C94E0020C94E0020C94E0020C94E002B8
:100040000C940F090C94E0020C94CD090C94A709B0
:100050000C94E0020C94E0020C94E0020C94E00298
:100060000C94E0020C94E002000000002400270041
:100070002A0000000000250028002B00636F6E6638
:1000800069672073617665206661696C65640A0042
:10009000010402000302048A050506C30B2019426D
:1000A0001E2C25802E882F2D370038003C8F3D10C8
:1000B0006F20005B5246313264656D6F2E31345DC6
:1000C0000043757272656E7420636F6E6669677542
:1000D000726174696F6E3A0A000A417661696C61F7
:1000E000626C6520636F6D6D616E64733A0A2020E7
:1000F0003C6E6E3E206920202020202D20736574E8
:10010000206E6F646520494420287374616E6461B9
:100110007264206E6F64652069647320617265206B
:10012000312E2E3330290A20203C6E3E20622020C2
:10013000202020202D20736574204D487A20626194
:100140006E64202834203D203433332C2038203D69
:10015000203836382C2039203D20393135290A20E5
:10016000203C6E6E6E6E3E206F2020202D20636836
:10017000616E6765206672657175656E6379206F63
:1001800066667365742077697468696E2074686543
:100190002062616E64202864656661756C7420312C
:1001A000363030290A202020202020202020202026
:1001B0002020202039362E2E333930332069732009
:1001C0007468652072616E676520737570706F72F8
:1001D000746564206279207468652052464D31321E
:1001E000420A20203C6E6E6E3E2067202020202D8B
:1001F00020736574206E6574776F726B2067726F01
:100200007570202852464D3132206F6E6C79206116
:100210006C6C6F7773203231322C2030203D20619E
:100220006E79290A20203C6E3E2063202020202069
:10023000202D2073657420636F6C6C656374206D72
:100240006F64652028616476616E6365642C206E3E
:100250006F726D616C6C792030290A202074202027
:1002600020202020202020202D2062726F616463D6
:10027000617374206D61782D73697A65207465737C
:1002800074207061636B65742C2072657175657381
:10029000742061636B0A20202E2E2E2C3C6E6E3E45
:1002A0002061202D2073656E64206461746120706C
:1002B00061636B657420746F206E6F6465203C6EA3
:1002C0006E3E2C20726571756573742061636B0AD4
:1002D00020202E2E2E2C3C6E6E3E2073202D20735F
:1002E000656E642064617461207061636B65742065
:1002F000746F206E6F6465203C6E6E3E2C206E6FB6
:100300002061636B0A20203C6E3E2071202020205B
:1003100020202D20736574207175696574206D6FC0
:100320006465202831203D20646F6E27742072653B
:10033000706F727420626164207061636B657473A6
:10034000290A20203C6E3E20782020202020202DCD
:1003500020736574207265706F7274696E672066B1
:100360006F726D61742028303A20646563696D6135
:100370006C2C20313A206865782C20323A20686550
:10038000782B6173636969290A20203C6E6E6E3E8A
:100390002079202020202D20656E61626C652073FD
:1003A00069676E616C20737472656E67746820741F
:1003B00072616365206D6F64652C2064656661758C
:1003C0006C743A30202864697361626C6564290A30
:1003D00020202020202020202020202020202073CA
:1003E000616D706C6520696E74657276616C203C1D
:1003F0006E6E6E3E20736563732F3130302028306F
:100400002E3031732D322E3573292065672031301F
:10041000793D302E31730A2020313233207A20206A
:10042000202020202D20746F74616C20706F776500
:100430007220646F776E2C206E6565647320612076
:10044000726573657420746F2073746172742075A3
:100450007020616761696E0A52656D6F7465206313
:100460006F6E74726F6C20636F6D6D616E64733A42
:100470000A20203C686368693E2C3C68636C6F3ED0
:100480002C3C616464723E2C3C636D643E206620AB
:10049000202020202D204653323020636F6D6D6167
:1004A0006E642028383638204D487A290A20203CAE
:1004B000616464723E2C3C6465763E2C3C6F6E3EFB
:1004C000206B2020202020202020202020202020E1
:1004D0002D204B414B5520636F6D6D616E6420285C
:1004E000343333204D487A290A00205A7A7A2E2E46
:1004F0002E0A007465737420003E200020620A00FA
:10050000202D3E2000202D3E2061636B0A002049F3
:100510004920004153432000292000202800204783
:1005200000203F004F4B0000000000230026002960
:10053000000404040404040404020202020202038C
:100540000303030303010204081020408001020496
:100550000810200102040810200000000800020119
:100560000000030407000000000000000000190E56
:1005700011241FBECFEFD8E0DEBFCDBF11E0A0E059
:10058000B1E0ECE6FDE102C005900D92AE33B1079B
:10059000D9F722E0AEE3B1E001C01D92A63EB2075A
:1005A000E1F712E0C8EBD2E004C02197FE010E94FF
:1005B000940EC73BD107C9F70E94410A0C94B40EB0
:1005C0000C940000833081F028F4813099F082305F
:1005D000A9F008958730A9F08830C9F08430B1F4CB
:1005E000809180008F7D03C0809180008F77809301
:1005F0008000089584B58F7784BD089584B58F7D7C
:10060000FBCF8091B0008F778093B00008958091E8
:10061000B0008F7DF9CFCF93DF93282F30E0F90121
:10062000E75AFA4F8491F901EB5BFA4FD491F90143
:10063000EF5CFA4FC491CC23A1F081110E94E20239
:10064000EC2FF0E0EE0FFF1FE95DFA4FA591B4919A
:10065000EC91ED2381E090E009F480E0DF91CF910F
:10066000089580E090E0FACF3FB7F894809145027A
:1006700090914602A0914702B091480226B5A89BEE
:1006800005C02F3F19F00196A11DB11D3FBFBA2F24
:10069000A92F982F8827BC01CD01620F711D811DE4
:1006A000911D42E0660F771F881F991F4A95D1F769
:1006B00008958F929F92AF92BF92CF92DF92EF9266
:1006C000FF926B017C010E9434034B015C01C11459
:1006D000D104E104F104B9F00E94340368197909E6
:1006E0008A099B09683E73408105910580F321E0EA
:1006F000C21AD108E108F10888EE880E83E0981E3E
:10070000A11CB11CE4CFFF90EF90DF90CF90BF9081
:10071000AF909F908F9008950895AF92BF92CF921F
:10072000DF92EF92FF920F931F93CF93DF936C01B1
:100730007B018B01040F151FEB015E01AE18BF0892
:10074000C017D10759F06991D601ED91FC91019044
:10075000F081E02DC6010995892B79F7C501DF915C
:10076000CF911F910F91FF90EF90DF90CF90BF90AE
:10077000AF900895FC01538D448D252F30E0842FD8
:1007800090E0821B930B541710F0CF9608950197B9
:100790000895FC01918D828D981761F0A28DAE0FA6
:1007A000BF2FB11D5D968C91928D9F5F9F73928F2D
:1007B00090E008958FEF9FEF0895FC01918D828D59
:1007C000981731F0828DE80FF11D858D90E0089526
:1007D0008FEF9FEF0895FC01918D228D892F90E07E
:1007E000805C9F4F821B91098F739927089589E43C
:1007F00092E00E94EB0321E0892B09F420E0822F94
:10080000089580E090E0892B29F00E94F703811180
:100810000C9400000895FC01A48DA80FB92FB11D00
:10082000A35ABF4F2C91848D90E001968F73992726
:10083000848FA689B7892C93A089B1898C91837004
:1008400080648C93938D848D981306C00288F389FD
:10085000E02D80818F7D80830895EF92FF920F932A
:100860001F93CF93DF93EC0181E0888F9B8D8C8D5C
:1008700098131AC0E889F989808185FF15C09FB750
:10088000F894EE89FF896083E889F9898081837013
:10089000806480839FBF81E090E0DF91CF911F91C2
:1008A0000F91FF90EF900895F62E0B8D10E00F5FE3
:1008B0001F4F0F731127E02E8C8D8E110CC00FB6B9
:1008C00007FCFACFE889F989808185FFF5CFCE0151
:1008D0000E940B04F1CFEB8DEC0FFD2FF11DE35ABD
:1008E000FF4FF0829FB7F8940B8FEA89FB898081D4
:1008F0008062CFCF682F89E492E00C942D04CF93CF
:10090000DF93EC01888D8823B9F0AA89BB89E88937
:10091000F9898C9185FD03C0808186FD0DC00FB6DD
:1009200007FCF7CF8C9185FFF2CF808185FFEDCF5B
:10093000CE010E940B04E9CFDF91CF910895862765
:10094000682F62956827062E669566956025062EA7
:10095000669560256770082E892F669507946795C0
:10096000902D862706946795902586270895E89808
:100970002A988EBD0DB407FEFDCF8EB56EBD0DB4A9
:1009800007FEFDCF8EB52A9AE89A089560E00C9490
:10099000B704CF93C82F81E00E94C604837E682FDE
:1009A0006C2B81E8CF910C94B704CF93DF938091A7
:1009B0009601853009F04DC060E485EA0E94B704D5
:1009C00084E20E94C6048093E401789488E20E9445
:1009D000C6048075D9F380919501C0919001D091A2
:1009E000910181110CC0E091950181E08E0F8093FF
:1009F0009501EC0FFD2FF11D80919401808380E023
:100A00000E94C604E091950191E09E0F909395019C
:100A1000EC0FFD2FF11D8083682F80919201909142
:100A200093010E949F04909393018093920180917F
:100A3000F9012091950190E004962817190609F014
:100A40002CF480919501883408F4C0CFDF91CF91C8
:100A5000089588E20E94C60483FFF8CF84E0809363
:100A600096010E94C90460E885EADF91CF910C9459
:100A7000B70480919601853059F4809195018111D8
:100A800007C084E0809396010E94C90481E0089524
:100A900080E0089588E20E94C604807521F080E01D
:100AA0000E94C604F7CF089580919601843029F002
:100AB000853041F18FEF9FEF56C01092F9011092EF
:100AC0009501609194018FEF9FEF0E949F04909396
:100AD00093018093920187EF91E09093910180932D
:100AE000900185E0809396010E944A0560E885EABE
:100AF0000E94B70480E10E94C90462E08EE90E946E
:100B0000B704D8CF8091F9012091950190E0049627
:100B10002817190609F024F480919501883450F2C1
:100B200084E0809396010E94C9048091F90120918C
:100B3000920130919301232B21F5833410F580919C
:100B4000F80186FF21C030918F013F31E9F02091FB
:100B5000F8012F7181E090E0231302C090E080E063
:100B60009195819591099093F6018093F5012091DB
:100B7000F5013091F60181E02F3F3F4F09F480E00D
:100B8000089581E090E0EFCF90E080E0ECCFCF934C
:100B90004093F901FB0130E020E050E024173507D5
:100BA00044F4D901A650BE4F91919C932F5F3F4FC3
:100BB000F5CF86FD04C0807E90918F01890F8093D0
:100BC000F801609194018FEF9FEF0E949F04909332
:100BD0009301809392019091F9018EEF891B80938C
:100BE00096010E944A058CE00E94C90460E085EAF3
:100BF0000E94B704809196018330D4F588E20E9468
:100C0000C60487FDF7CF8091960187FF25C0E0914C
:100C1000F901809196012091900130919101E20FAC
:100C2000F32FF11DE80FF11D87FDFA95C3816C2F9D
:100C300080919201909193010E949F04909393015F
:100C4000809392016C2F80E80E94B70480919601F6
:100C50008F5F80939601CECF80919601C0919201D3
:100C6000882381F3C0919301813061F3CAEAEACF0E
:100C7000CF910895982F9F7080E3890F8A3310F0E9
:100C800087E3890F0C947A040C947A041F93CF9312
:100C9000DF93EC01FE011491112351F01A3019F485
:100CA0008DE00E944406812F0E9444062196F2CFD7
:100CB000DF91CF911F9108951F93CF93DF936EE43F
:100CC00075E0FB0194912AE335E0F9014491442356
:100CD00099F050E0440F551FFA01E859FF4FA591D4
:100CE000B491FA01EE58FF4F459154914FB7F894E3
:100CF0005C91952B9C934FBFE2E6F5E09491FB014C
:100D0000D491F901C491CC23C1F0182F992319F083
:100D1000892F0E94E202EC2FF0E0EE0FFF1FEE5849
:100D2000FF4FA591B4918FB7F89411110AC09C910F
:100D30006D2F609569236C938FBFDF91CF911F91C9
:100D400008956C916D2BF7CF20E001972FEF8F3F27
:100D50009207D9F70895FC0101900020E9F7319737
:100D6000AF01481B590BBC0189E492E00C948D0340
:100D700089E191E00C94AB068F929F92AF92BF9263
:100D80000F931F93CF93DF93CDB7DEB7A1970FB625
:100D9000F894DEBF0FBECDBF19A2423008F44AE07E
:100DA0008E010F5D1F4F842E912CB12CA12CA5011B
:100DB00094010E94720EE62FB901CA01EA30F4F4E0
:100DC000E05DD801EE938D01232B242B252B79F7A1
:100DD00090E080E0109719F0CD010E94AB06A1963B
:100DE0000FB6F894DEBF0FBECDBFDF91CF911F913C
:100DF0000F91BF90AF909F908F900895E95CE1CFE5
:100E0000CF92DF92EF92FF92CF93DF936C01092E86
:100E1000000CEE08FF0897FF17C08DE20E947A04CD
:100E2000EC0166277727CB016C197D098E099F0994
:100E30004AE00E94BC068C0F9D1FDF91CF91FF906E
:100E4000EF90DF90CF9008954AE0C701B601DF919F
:100E5000CF91FF90EF90DF90CF900C94BC06BC0137
:100E600090E080E04AE00C94BC06CF939091E801BA
:100E70009370282F30E069F0C82FC90124E09595C0
:100E800087952A95E1F70E943A068C2FCF910C9412
:100E90003A06C901CF910C942F07CF92DF92EF92BF
:100EA000FF920F931F93CF93DF93C82FD42FA901E5
:100EB000EFEFE60FE33008F07FC0F0E0EC5FFE4FAD
:100EC000E081262F30E0A4ECB9E00E949A0EDA010E
:100ED0009B01AC010E94A90E6B017C01AE2FB0E01A
:100EE00020E836E948E950E00E94A90E6C0D7D1D0E
:100EF0008E1D9F1D22E0660F771F881F991F2A9560
:100F0000D1F729E03DE340E050E00E94720E66E038
:100F1000220F331F441F551F6A95D1F720938B0171
:100F200030938C0140938D0150938E01D0939401A6
:100F3000DC2FDF71D0938F0164E170E080E090E0FE
:100F40000E945903DD2309F439C085ED94E09093A4
:100F500001018093000180916900836080936900A2
:100F6000E89A2A9A229A2A9A84B18C6284B980E5F6
:100F70008CBD8DB581608DBD6AEA8FEA0E94B70491
:100F80008FE20E94C6048A3AB9F765E58FEA0E94AB
:100F9000B7048FE20E94C6048535B9F700E910E076
:100FA000F8018491882391F03196649180680E94C1
:100FB000B7040E5F1F4FF4CFE0E083CFE8988CE8D2
:100FC00093E09093010180930001CBCF6091940155
:100FD00080EB0E94B704C0908B01D0908C01E09010
:100FE0008D01F0908E01B7018827992787E80E942C
:100FF000B70499278F2D7E2D6D2D88E80E94B704A8
:101000006C2D89E80E94B70484E0809396018C2FB0
:10101000DF91CF911F910F91FF90EF90DF90CF90D4
:1010200008950F931F93CF93DF93C0E2D0E00FEFAB
:101030001FEFCE010E94460E682FC8010E949F0438
:101040008C012196C033D105A1F7892B39F582E2B5
:1010500090E00E94460E813009F580E290E00E9407
:10106000460EC82F81E290E00E94460ED82F84E2FF
:1010700090E00E944E0E6C2F70E026E0759567950B
:101080002A95E1F79C014D2F8C2F0E944D078C2F44
:101090008F71DF91CF911F910F91089580E0F9CF6B
:1010A000EF92FF920F931F93CF93DF9380E290E034
:1010B0000E94460EC82F83E290E00E94460E182F31
:1010C00084E290E00E944E0E7C0180E20E947A044D
:1010D0000C2F0F7180E4800F0E947A048CE191E064
:1010E0000E94AB06D0E0802F90E00E940007012F05
:1010F000047012FF03C08AE20E947A048FE191E03B
:101100000E94AB0681E290E00E94460E682F70E0DC
:1011100090E080E04AE00E94BC0682E291E00E94FA
:10112000AB0686E0D595C7958A95E1F781EB91E00E
:10113000C13051F084E693E0C23031F090E080E0BD
:10114000C33011F483E993E00E94000786E291E046
:101150000E94AB06002321F08BE291E00E94AB06D7
:1011600080E4E81686E0F80639F08FE291E00E940C
:10117000AB06C7010E942F0713FF04C082E391E072
:101180000E94AB06137041F086E391E00E94AB062B
:10119000812F90E00E940007DF91CF911F910F9166
:1011A000FF90EF900C94B8060F931F93CF93DF93AB
:1011B00081E08093E70105EE11E0E8018FEF9FEFFA
:1011C00069910E949F0421E0C33FD207C9F7909321
:1011D000F4018093F3016091E50180E290E00E94C8
:1011E000540EC0E2D0E0F80161918F01CE010E945F
:1011F000540E2196C033D105B1F70E9411088823FF
:1012000031F0DF91CF911F910F910C9450088CE732
:1012100090E0DF91CF911F910F910C9446061F92A1
:101220000F920FB60F9211242F933F938F939F939A
:10123000AF93BF938091410290914202A0914302EB
:10124000B09144023091400223E0230F2D3758F52E
:101250000196A11DB11D20934002809341029093FD
:101260004202A0934302B0934402809145029091C0
:101270004602A0914702B09148020196A11DB11DFE
:101280008093450290934602A0934702B093480290
:10129000BF91AF919F918F913F912F910F900FBE72
:1012A0000F901F90189526E8230F0296A11DB11DDF
:1012B000D2CF1F920F920FB60F9211242F933F930C
:1012C0004F935F936F937F938F939F93AF93BF934E
:1012D000EF93FF93E0910201F09103010995FF91D3
:1012E000EF91BF91AF919F918F917F916F915F919E
:1012F0004F913F912F910F900FBE0F901F90189517
:101300001F920F920FB60F9211242F933F934F937A
:101310005F936F937F938F939F93AF93BF93EF935D
:10132000FF93E0910001F09101010995FF91EF9188
:10133000BF91AF919F918F917F916F915F914F91ED
:101340003F912F910F900FBE0F901F9018951F92F5
:101350000F920FB60F9211242F933F934F935F93E9
:101360006F937F938F939F93AF93BF93EF93FF936D
:1013700089E492E00E940B04FF91EF91BF91AF913D
:101380009F918F917F916F915F914F913F912F919D
:101390000F900FBE0F901F9018951F920F920FB6CF
:1013A0000F9211242F938F939F93EF93FF93E091CC
:1013B0005902F0915A028081E0915F02F09160023F
:1013C00082FD1BC09081809162028F5F8F7320919C
:1013D0006302821741F0E0916202F0E0E75BFD4FAB
:1013E000958F80936202FF91EF919F918F912F9142
:1013F0000F900FBE0F901F9018958081F4CF1F9211
:101400000F920FB60F9211242F933F934F935F9338
:101410006F937F938F939F93AF93BF93CF93EF93EC
:10142000FF9388E00E940B03892BC9F488EF9FEF9C
:101430000E94A406C8E08AEF9FEF0E94A40688E0FD
:101440000E940B03C150B9F790E080E00E94A4060F
:1014500080918A01811103C081E080938A01FF910C
:10146000EF91CF91BF91AF919F918F917F916F91AC
:101470005F914F913F912F910F900FBE0F901F9052
:101480001895789484B5826084BD84B5816084BDEC
:1014900085B5826085BD85B5816085BD80916E0012
:1014A000816080936E001092810080918100826043
:1014B0008093810080918100816080938100809180
:1014C00080008160809380008091B100846080936F
:1014D000B1008091B00081608093B00080917A006B
:1014E000846080937A0080917A00826080937A0091
:1014F00080917A00816080937A0080917A00806880
:1015000080937A001092C10081E00E945C0664E63C
:1015100070E080E090E00E945903E0915902F09160
:101520005A0282E08083E0915502F09156021082C7
:10153000E0915702F091580283E380831092610298
:10154000E0915D02F0915E0286E08083E0915B02B3
:10155000F0915C02808180618083E0915B02F09178
:101560005C02808188608083E0915B02F0915C0284
:10157000808180688083E0915B02F0915C028081D1
:101580008F7D80830E94B80683EB90E00E94460620
:101590000E941108882309F496C005EE11E0C0E20C
:1015A000D0E0CE010E94460ED8018D938D01219688
:1015B000C033D105B1F70E94500868EE73E080E0B7
:1015C00090E00E94590380E00E945C0604E610E06F
:1015D00060E0662E60E0762E72E0E72EF12CE3E00C
:1015E000CE2ED12C88248394912C42E4442E5AE0B0
:1015F000552E89E492E00E94EB03892BE1F089E407
:1016000092E00E94C903C82F80ED8C0F8A3008F049
:1016100077C02091990130919A01529EC001539E4A
:10162000900D1124C0978C0F911DC7FD9A95909332
:101630009A0180939901B0903F02B110C2C20E94FA
:101640005405882309F47CC2A090F9018091F5012A
:101650009091F601892B09F0ECC181E00E945C06B3
:1016600084E295E00E9446068091E801837019F0BB
:1016700088E50E9444068091E601811108C08EE150
:1016800095E00E9446068091F7010E94350780E2AE
:101690000E9444068091F8018F710E943507D0E0C6
:1016A000C0E0CA1508F0D4C18091E801837019F434
:1016B00080E20E944406FE01E650FE4F80810E94B7
:1016C00035072196EECFE7EEF1E08EE0DF011D92C7
:1016D0008A95E9F78FE48093E50182ED8093E60136
:1016E00080E496E09093EA018093E9018091E8011B
:1016F00088608093E8010E94D4080E9411085BCFA3
:10170000CC3299F4E0919801E63450F4809199013B
:1017100091E09E0F90939801F0E0E556FE4F808394
:1017200010929A011092990186CFDFE9DC0FDA312D
:1017300008F589EF94E00E944606B12C809198014B
:10174000B81668F4EB2DF0E0E556FE4F808190E08E
:101750000E942F078CE20E944406B394EFCF809141
:10176000990190919A010E942F078C2F0E947A0470
:101770000E94B806CE3309F044C080919901C0910F
:10178000980191E09C0F90939801EC2FF0E0E556C2
:10179000FE4F80832091E9013091EA0140919C0144
:1017A00080919B0161E0843039F062E0883021F063
:1017B00063E0893009F060E080919D010E944D074F
:1017C000C350D0919E010E943905811103C00E942F
:1017D0005405F9CF4C2F6FE971E08D2F0E94C7059A
:1017E0008091960184300CF0C0C083B7817F8C60FB
:1017F00083BF83B7816083BF889583B78E7F83BFA4
:10180000EFCFC1320CF434C0DA3108F00BC1ED2F48
:10181000DD0FFF0BE25FF34F0C94940E9D0C3B0C1D
:10182000750C380C380CA80C700C120D280C120D0D
:10183000B80C080D120D120D650C120DF20C380CBF
:101840009D0C7E0C120D010D380CF90C0D0DBD0C0C
:101850002091990130919A01C90101974E9740F466
:101860008091E501807E822B8093E5010E94D4085F
:101870001092980155CF809199018430B1F49092E3
:101880009A018092990191E08091E5018F73929580
:10189000990F990F907C890F8093E50180E496E081
:1018A0009093EA018093E901E1CF883041F08930DB
:1018B000F9F6D0929A01C092990193E0E5CFF092A7
:1018C0009A01E092990192E0DFCF80919901909185
:1018D0009A019C0120563109203E3E4048F6E0CF57
:1018E000809199018093E601C1CF8091E8019091A8
:1018F000990190FB82F98093E801B8CFE1E6E0938B
:10190000E3014092E2011092E101C0919701EBE9FD
:10191000F1E080E09C2F980F91938F5F8234D1F794
:1019200083EF94E00E9446068C2F0E943507809139
:1019300097018F5F809397019BCFC093E3018091C4
:1019400098018093E201809199018093E10190CF09
:1019500020E436E040E062E080E00E944D0781E054
:101960000E945C0680E00E945C060E94110880CF05
:1019700020E436E040E061E0EFCF80919901909162
:101980009A018B37910509F073CF8AEE94E00E949B
:10199000460689E492E00E947F0480E00E94C90428
:1019A000F4E0F0939601F89490917A0080917A0097
:1019B0008F7780937A0083B7817F846083BFF894A8
:1019C00083B7816083BF85B7806685BF85B78F7910
:1019D000806485BF7894889583B78E7F83BF90930A
:1019E0007A0046CF8091E8019091990190FB83F9AC
:1019F00082CF9091990193708091E8018C7F892B1F
:101A00007ACF83EB90E00E9446060E94500830CFC8
:101A1000809199010E945C062BCF8091990180935F
:101A20003F0226CF89ED90E00E94460681EC90E0CF
:101A3000EACF8091E80183FDB6C081E295E00E9483
:101A4000460644E14A1508F00FCE34E1A32E0CCE31
:101A50008BE195E00E9446068091E4019091E801B7
:101A60009370C1F10E94350788E195E00E94460617
:101A70000E94B8068091E80183708230C0F183E152
:101A800095E00E9446068091E601811104C08EE037
:101A900095E00E9446068091F80186FF24C08EE3FF
:101AA0000E9444068091F8018F71805C0E94440678
:101AB000CAEFD1E0312CA314C1F080E20E944406A9
:101AC000899190EE980F9F3508F08EE20E944406AF
:101AD0003394F1CF90E095958795919581959109F3
:101AE0000E940007C1CF8CE3DBCF0E94B806809133
:101AF000F5019091F601892B19F581E00E945C06B1
:101B00008091F80185FF19C08091F80187FD15C00B
:101B10008091E80182FD11C085E095E00E944606B3
:101B20008091F80186FD4BC08091F8018F71806C27
:101B300040E070E060E00E94C70580E00E945C0623
:101B40008091E301882361F10E943905882341F1E6
:101B500081E00E945C0680E095E00E94460680914C
:101B6000E20190E00E942F078CEF94E00E9446066D
:101B70008091E301813611F490E2B92E8091E10168
:101B8000882311F08064B82A4091E2016BE971E08A
:101B90008B2D0E94C7051092E30180E00E945C0635
:101BA00080E00E945C066114710409F422CD0E9459
:101BB000F703882309F419CD0E94000016CD80E8B0
:101BC000B7CF0E945405C091E401D0E0D595C795E8
:101BD0002C2E312C5801AC1ABD0A3A141B042CF4DB
:101BE0008DE20E9444063394F8CF89E391E00E948D
:101BF000AB06B12CB21428F480E20E944406B394E0
:101C0000F9CF882799278C1B9D0B0E9400078BE337
:101C100091E00E94AB060E94B80660913F02659D6C
:101C2000B0011124072E000C880B990B0E94590358
:101C3000BACFE9E4F2E01382128288EE93E0A0E0EA
:101C4000B0E084839583A683B7838BE091E0918392
:101C5000808385EC90E09587848784EC90E097877B
:101C6000868780EC90E0918B808B81EC90E0938B69
:101C7000828B82EC90E0958B848B86EC90E0978B46
:101C8000868B118E128E138E148E0895F999FECFC5
:101C900092BD81BDF89A992780B50895A8E1B0E07A
:101CA00042E050E00C94640E262FF999FECF1FBA43
:101CB00092BD81BD20BD0FB6F894FA9AF99A0FBE75
:101CC00001960895DC01CB01FC01F999FECF06C015
:101CD000F2BDE1BDF89A319600B40D9241505040EA
:101CE000B8F70895A1E21A2EAA1BBB1BFD010DC077
:101CF000AA1FBB1FEE1FFF1FA217B307E407F507BC
:101D000020F0A21BB30BE40BF50B661F771F881F97
:101D1000991F1A9469F760957095809590959B012D
:101D2000AC01BD01CF010895EE0FFF1F0590F491A6
:101D3000E02D0994A29FB001B39FC001A39F700D35
:101D4000811D1124911DB29F700D811D1124911DC3
:101D500008950E949A0EA59F900DB49F900DA49F88
:101D6000800D911D11240895F894FFCF8C038C03EE
:101D70002B565A000000002D048D03BA037F04EB9C
:101D800003C903DD030D0A0020690020670020401D
:101D90002000204D487A0020633100206F00207120
:0A1DA00031002078002A00644200A0
:107E0000112484B714BE81FFF0D085E080938100F7
:107E100082E08093C00088E18093C10086E0809377
:107E2000C20080E18093C4008EE0C9D0259A86E02C
:107E300020E33CEF91E0309385002093840096BBD3
:107E4000B09BFECF1D9AA8958150A9F7CC24DD24C4
:107E500088248394B5E0AB2EA1E19A2EF3E0BF2EE7
:107E6000A2D0813461F49FD0082FAFD0023811F036
:107E7000013811F484E001C083E08DD089C08234E0
:107E800011F484E103C0853419F485E0A6D080C0E4
:107E9000853579F488D0E82EFF2485D0082F10E0AE
:107EA000102F00270E291F29000F111F8ED06801E7
:107EB0006FC0863521F484E090D080E0DECF843638
:107EC00009F040C070D06FD0082F6DD080E0C81688
:107ED00080E7D80618F4F601B7BEE895C0E0D1E017
:107EE00062D089930C17E1F7F0E0CF16F0E7DF06D8
:107EF00018F0F601B7BEE89568D007B600FCFDCFD4
:107F0000A601A0E0B1E02C9130E011968C91119780
:107F100090E0982F8827822B932B1296FA010C0160
:107F200087BEE89511244E5F5F4FF1E0A038BF0790
:107F300051F7F601A7BEE89507B600FCFDCF97BE46
:107F4000E89526C08437B1F42ED02DD0F82E2BD052
:107F50003CD0F601EF2C8F010F5F1F4F84911BD097
:107F6000EA94F801C1F70894C11CD11CFA94CF0C13
:107F7000D11C0EC0853739F428D08EE10CD085E9AC
:107F80000AD08FE07ACF813511F488E018D01DD067
:107F900080E101D065CF982F8091C00085FFFCCF94
:107FA0009093C60008958091C00087FFFCCF809118
:107FB000C00084FD01C0A8958091C6000895E0E648
:107FC000F0E098E1908380830895EDDF803219F02E
:107FD00088E0F5DFFFCF84E1DECF1F93182FE3DFCA
:107FE0001150E9F7F2DF1F91089580E0E8DFEE27F6
:047FF000FF270994CA
:027FFE00040479
:00000001FF
